SCANP 00AKPAA        0     025NSN59565600W151413200E014500252         1800018000P    MNAR    LOWELL FLD                    045592201
SCANP 01A PAA01A     0     011NSN62562672W152161060E024002041         1800018000C    MNAR    PURKEYPILE                    045601703
SCANP 01A PAGRW05    0011760463 N62562477W152162256               02034000050050D                                          045611703
SCANP 01A PAGRW23    0011762263 N62562867W152155863               02041000050050D                                          045621703
SCANP 01ANPAA        0     018NSN61385650W149202050E015500610         1800018000P    MNAR    MC HONE HEIGHTS               045632209
SCANP 01ANPAGRW09    0018860714 N61385600W149204000               00610000050180D                                          045642208
SCANP 01ANPAGRW27    0018862514 N61385700W149200100               00610000050180D                                          045652208
SCANP 01CNPAA        0     020NSN62062514W150063348E015300282         1800018000P    MNAR    COLEMAN HOMESTEAD             045662209
SCANP 01CNPAGRW17    0020001680 N62063496W150063226               00282000050075D                                          045672209
SCANP 01CNPAGRW35    0020003480 N62061531W150063469               00270000050075D                                          045682209
SCANP 02AAPAA        0     006NSN61302400W149544300E015300160         1800018000P    MNAR    BAREFOOT                      045692201
SCANP 02AKPAA        0     022NSN61523688W150055150E025000190         1800018000P    MNAR    RUSTIC WILDERNESS             045701703
SCANP 03AKPAA        0     060NWN60433800W151075800E014800150         1800018000P    MNAR    JOE CLOUDS                    045712201
SCANP 04AAPAA        0     013NSN60320900W150484100E014900250         1800018000P    MNAR    FLYING W RANCH                045722201
SCANP 05AAPAA        0     100NWN57305378W134564637E027000000         1800018000P    MNAR    CHATHAM                       045731808
SCANP 05AKPAA        0     020NSN61400716W149111440E024000645         1800018000P    MNAR    WASILLA CREEK AIRPARK         045742101
SCANP 05AKPAGRW01    0020000080 N61395881W149112540               00620000050100D                                          045752101
SCANP 05AKPAGRW19    0020001880 N61401550W149110340               00645000050100D                                          045762101
SCANP 06AAPAA        0     015NSN60322450W150484900E023000260         1800018000P    MNAR    TWISTED SISTERS               045772013
SCANP 06AAPAGRW09    0015040709 N60322500W150490400               00260000050070D                                          045782013
SCANP 06AAPAGRW27    0015042509 N60322400W150483400               00260000050070D                                          045792013
SCANP 06AKPAA        0     017NSN61373943W149343119E015400425         1800018000P    MNAR    JUNE LAKE AIRPARK             045802201
SCANP 07AAPAA        0     020NSN61414547W149571765E015300357         1800018000P    MNAR    PAN LAKE STRIP                045812201
SCANP 08AKPAA        0     012NSN61341070W149432798E015400200         1800018000P    MNAR    FISHER                        045822201
SCANP 09AKPAA        0     013NSN61352170W149505040E015300228         1800018000P    MNAR    WEST BEAVER                   045832201
SCANP 0AA1PAA        0     043NSN60045106W142294378E027000016         1800018000P    MNAR    YAKATAGA                      045841703
SCANP 0AA1PAGRW08    0043500736 N60045499W142302592               00016000050075D                                          045851703
SCANP 0AA1PAGRW26    0043502536 N60044712W142290164               00007000050075D                                          045861703
SCANP 0AA4PAA        0     046NSN62303306W153532626E024001535         1800018000P    MNAR    FAREWELL                      045871904
SCANP 0AA4PAGRW08    0046000810 N62303884W153541360               01462000050030D                                          045881904
SCANP 0AA4PAGRW26    0046002610 N62302728W153523891               01517000050030D                                          045891904
SCANP 0AA5PAA        0     018NSN62184600W150200900E015200470         1800018000P    MNAR    RANGEVIEW AIRSTRIP            045902201
SCANP 0AA7PAA        0     025NSN60292954W151140691E014700065         1800018000P    MNAR    KALIFONSKY MEADOWS            045912201
SCANP 0AK PAA0AK     0     040NSN61574132W162563248E018000473         1800018000C    MNAR    PILOT STATION                 045922008
SCANP 0AK PAGRW04    0040000390 N61573070W162570771               00452000050075D                                          045932008
SCANP 0AK PAGRW22    0040002190 N61575193W162555725               00473000050075D                                          045942008
SCANP 0AK0PAA        0     010NSN64233300W146514350E027000800         1800018000P    MNAR    SCOTTS                        045951703
SCANP 0AK1PAA        0     028NWN61370077W149191754E025000463         1800018000P    MNAR    ANDERSON LAKE                 045961703
SCANP 0AK2PAA        0     010NSN61432904W150410034E015000081         1800018000P    MNAR    YENTNA BEND STRIP             045972201
SCANP 0AK3PAA        0     010NSN62020537W150292776E025000250         1800018000P    MNAR    PARKER LAKE                   045981703
SCANP 0AK5PAA        0     015NSN61212345W142440040E017501580         1800018000P    MNAR    YOUNG CREEK                   045992201
SCANP 0AK6PAA        0     018NSN61481215W147563895E026001800         1800018000P    MNAR    VICTORY                       046001703
SCANP 0AK7PAA        0     024NSN59463385W150573065E014800018         1800018000P    MNAR    BRADLEY LAKE HYDROELECTRIC PRO046012201
SCANP 0AK8PAA        0     020NSN61253676W142584380E017501320         1800018000P    MNAR    FIREWEED                      046022201
SCANP 0AK9PAA        0     020NSN61195718W150033259E015200110         1800018000P    MNAR    FALCON LAKE STRIP             046032201
SCANP 10AKPAA        0     008NSN61353077W149404048E024000200         1800018000P    MNAR    HUNT STRIP                    046041703
SCANP 11AKPAA        0     022NSN63595858W145300834E028001190         1800018000P    MNAR    ROCKING T RANCH               046051703
SCANP 13AKPAA        0     009NSN61391692W149540000E025000350         1800018000P    MNAR    SATTERBERGS                   046061703
SCANP 13S PAA13S     0     050NWN62165828W146310792E027002362         1800018000C    MNAR    LAKE LOUISE                   046071703
SCANP 13Z PAA13Z     0     100NWN55360470W131381206E026000000         1800018000C    MNAR    LORING                        046081703
SCANP 14AKPAA        0     013NSN61360888W149145280E025000300         1800018000P    MNAR    FOUR CORNERS                  046091703
SCANP 15AKPAA        0     020NSN63221434W148510121E027002250         1800018000P    MNAR    GOLDEN NORTH AIRFIELD         046101703
SCANP 16AKPAA        0     012NHN61355700W149204900E024000320         1800018000P    MNAR    GATTIS STRIP                  046111703
SCANP 16K PAA16K     0     100NWN55470566W133353921E026000000         1800018000C    MNAR    PORT ALICE                    046121703
SCANP 16Z PAA16Z     0     040NWN62572875W155353545E023000325         1800018000C    MNAR    MC GRATH                      046131703
SCANP 18AAPAA        0     016NSN59215417W135481766E018600089         1800018000P    MNAR    18 MEADOWS AERODROME          046142201
SCANP 18AAPAGRW08    0016630621 N59215285W135483349               00079000050060D                                          046152201
SCANP 18AAPAGRW26    0016632421 N59215550W135480182               00074000050060D                                          046162201
SCANP 19AKPAA        0     034NSN59580847W141394237E027000050         1800018000P    MNAR    ICY BAY                       046171703
SCANP 19P PAA19P     0     040NWN56194370W133363630E026000000         1800018000C    MNAR    PORT PROTECTION               046181703
SCANP 1AK1PAA        0     022NSN67222234W152005788E026000840         1800018000P    MNAR    CREVICE CREEK                 046191703
SCANP 1AK2PAA        0     011NSN62240339W146004790E027002125         1800018000P    MNAR    CROSSWIND LAKE                046201703
SCANP 1AK4PAA        0     021NSN60312696W150450795E024000200         1800018000P    MNAR    KENAI RIVER AIRPARK           046211703
SCANP 1AK6PAA        0     018NSN61512210W151235270E023000282         1800018000P    MNAR    TALACHULITNA RIVER            046222007
SCANP 1AK8PAA        0     009NSN61402882W151230555E014700610         1800018000P    MNAR    TALAHEIM                      046232201
SCANP 1KC PAA1KC     0     040NSN64252801W156503602E020001598         1800018000M    MNAR    KALAKAKET CREEK AS            046241703
SCANP 1Z9 PAA1Z9     0     080NWN60533807W146421329E026000000         1800018000C    MNAR    ELLAMAR                       046251703
SCANP 20AKPAA        0     011NSN61301364W149534576E015300150         1800018000P    MNAR    OWEN FLD                      046262201
SCANP 20K PAA20K     0     016NSN65211699W149454096E027001576         1800018000C    MNAR    QUAIL CREEK                   046271703
SCANP 20K PAGRW16    0016501626 N65212500W149453772               01564000050030D                                          046281703
SCANP 20K PAGRW34    0016503426 N65210898W149454420               01576000050030D                                          046291703
SCANP 21AKPAA        0     023NSN62045740W150040095E025000250         1800018000P    MNAR    MONTANA CREEK                 046301703
SCANP 23AKPAA        0     011NSN61353869W149183863E023000340         1800018000P    MNAR    YUKNIS                        046311703
SCANP 24AKPAA        0     013NSN61365670W149422495E022000100         1800018000P    MNAR    TOAD LAKE STRIP               046321703
SCANP 25AAPAA        0     024NSN64554317W147525006E016301100         1800018000P    MNAR    SKYFLIGHT                     046332201
SCANP 25AKPAA        0     020NSN61424406W150034799E024000200         1800018000P    MNAR    HONEYBEE LAKE AERO PARK       046341703
SCANP 27AKPAA        0     017NSN61564344W151021308E018000187         1800018000P    MNAR    JOHNSON STRIP YENTNA          046352108
SCANP 27AKPAGRW11    0017001067 N61564820W151022771               00184000050050D                                          046362108
SCANP 27AKPAGRW29    0017002867 N61563868W151015847               00187000050050D                                          046372108
SCANP 28AKPAA        0     021NSN61483196W147513365E026001875         1800018000P    MNAR    GATES RANCH                   046381703
SCANP 29A PAA29A     0     040NWN61374405W149370423E015400370         1800018000C    MNAR    ISLAND LAKE                   046392201
SCANP 29AKPAA        0     018NSN64024817W145260905E028001080         1800018000P    MNAR    REMINGTON FLD                 046402206
SCANP 29AKPAGRW06    0018000600 N64024781W145262925               01080000050075D                                          046412206
SCANP 29AKPAGRW24    0018002400 N64024852W145254884               01080000050075D                                          046422206
SCANP 2AK PAA2AK     0     015NSN61213287W155262539E022000545         1800018000C    MNAR    LIME VILLAGE                  046431703
SCANP 2AK PAGRW10    0015000990 N61213663W155263863               00541000050055D                                          046441703
SCANP 2AK PAGRW28    0015002790 N61212911W155261215               00545000050055D                                          046451703
SCANP 2AK0PAA        0     014NSN61152117W149582876E015200120         1800018000P    MNAR    MAC KENZIE COUNTRY AIRPARK    046462201
SCANP 2AK1PAA        0     015NSN64214946W147214953E028000910         1800018000M    MNAR    BLAIR LAKE                    046471703
SCANP 2AK2PAA        0     039NSN64271245W147334857E028000660         1800018000M    MNAR    CLEAR CREEK                   046481703
SCANP 2AK4PAA        0     012NSN59281200W151304500E023000045         1800018000P    MNAR    BOOTLEGGERS COVE              046491703
SCANP 2AK5PAA        0     017NSN60285403W146350331E026000015         1800018000P    MNAR    JOHNSTONE POINT               046501703
SCANP 2AK6PAA        0     055NSN66103408W155410534E024000534         1800018000P    MNAR    HOG RIVER                     046511703
SCANP 2AK8PAA        0     032NSN70173296W161541200E021000048         1800018000P    MNAR    ICY CAPE AFS                  046521703
SCANP 2AK9PAA        0     018NSN65402452W162275063E019000250         1800018000P    MNAR    INDEPENDENCE CREEK            046531703
SCANP 2D3 PAA2D3     0     030NWN61373979W149142065E015500500         1800018000C    MNAR    GOODING LAKE                  046542201
SCANP 2K5 PAA2K5     0     019NSN63224435W153170318E024000650         1800018000C    MNAR    TELIDA                        046551703
SCANP 2K5 PAGRW02    0019000280 N63223863W153171967               00621000050040D                                          046561703
SCANP 2K5 PAGRW20    0019002080 N63225006W153164668               00630000050040D                                          046571703
SCANP 2R3 PAA2R3     0     050NWN60421597W151184105E023000140         1800018000C    MNAR    ISLAND LAKE                   046581703
SCANP 2VI2PAA        0     045NWN60250854W152211761E014300385         1800018000P    MNAR    REDOUBT VIEW                  046592201
SCANP 2X2 PAA2X2     0     036NWN61443640W150033490E015200200         1800018000C    MNAR    WILLOW SPB                    046602201
SCANP 2X2 PAGRW13W   0036001409 N61445262W150035003               00200000050400D                                          046612201
SCANP 2X2 PAGRW31W   0036003209 N61442021W150031973               00200000050400D                                          046622201
SCANP 2Y3 PAA2Y3     0     075NWN59343970W139445980E028000000         1800018000C    MNAR    YAKUTAT                       046631703
SCANP 2Z2 PAA2Z2     0     015NSN65103328W150131394E026000700         1800018000C    MNAR    EUREKA CREEK                  046641703
SCANP 2Z3 PAA2Z3     0     009NSN64023160W148514730E027002817         1800018000C    MNAR    EVA CREEK                     046651703
SCANP 2Z3 PAGRW08    0009500700 N64023217W148515788               02817000050040D                                          046661703
SCANP 2Z3 PAGRW26    0009502500 N64023105W148513669               02817000050040D                                          046671703
SCANP 2Z5 PAA2Z5     0     050NWN64495844W147505373E028000440         1800018000C    MNAR    CHENA RIVER                   046681703
SCANP 2Z6 PAA2Z6     0     040NWN57315576W135124842E027000000         1800018000C    MNAR    FALSE ISLAND                  046691703
SCANP 30AKPAA        0     024NSN60300993W151153601E023000050         1800018000P    MNAR    DOYLE ESTATES                 046701703
SCANP 31AKPAA        0     024NSN64495847W147252872E028000450         1800018000P    MNAR    DALRYMPLE'S                   046711703
SCANP 33AKPAA        0     012NSN62310212W150564323E025002010         1800018000P    MNAR    NUGGET BENCH                  046721703
SCANP 34AKPAA        0     012NSN61373014W149171889E026000425         1800018000P    MNAR    CARDWELL STRIP                046731703
SCANP 35AKPAA        0     010NSN61382636W150305813E015100109         1800018000P    MNAR    POKER BLUFF                   046742201
SCANP 36AKPAA        0     021NWN61203602W150035987E022000150         1800018000P    MNAR    FLYWAY FARM AIRSTRIP          046751703
SCANP 36H PAA36H     0     050NWN55140002W160330730E018000000         1800018000C    MNAR    SQUAW HARBOR                  046761703
SCANP 38AKPAA        0     015NWN61334482W149400422E022000340         1800018000P    MNAR    MELS                          046771703
SCANP 39AKPAA        0     012NSN61350970W149140953E023000340         1800018000P    MNAR    KROENKE STRIP                 046782004
SCANP 3A3 PAA3A3     0     060NWN61364846W149395605E022000320         1800018000C    MNAR    SEYMOUR LAKE SPB              046791703
SCANP 3AK PAA3AK     0     036NSN59095160W138291970E018200033         1800018000C    MNAR    DRY BAY                       046802201
SCANP 3AK1PAA        0     006NSN61561674W147101229E016303289         1800018000P    MNAR    SKELTON                       046812201
SCANP 3AK2PAA        0     007NSN61373900W149171223E024000410         1800018000P    MNAR    NIKLASON LAKE ESTATES         046821703
SCANP 3AK3PAA        0     021NSN62334956W150131380E023000825         1800018000P    MNAR    SONGLO VISTA                  046831703
SCANP 3AK4PAA        0     018NSN60375696W151202405E024000102         1800018000P    MNAR    JOHNSON                       046841703
SCANP 3AK5PAA        0     041NSN60351992W152094312E024000030         1800018000P    MNAR    DRIFT RIVER                   046851703
SCANP 3AK6PAA        0     007NSN61353462W149160818E025000300         1800018000P    MNAR    B & B BOYS RANCH              046861703
SCANP 3AK7PAA        0     010NSN61455608W150202006E025000100         1800018000P    MNAR    LAUB                          046871703
SCANP 3AK8PAA        0     013NSN61394514W149233084E024000400         1800018000P    MNAR    BOISSELLE'S STRIP             046881703
SCANP 3H3 PAA3H3     0     040NWN61355140W149185890E023000300         1800018000C    MNAR    COTTONWOOD LAKE               046891703
SCANP 3K9 PAA3K9     0     055NWN61351950W149230622E015500330         1800018000C    MNAR    UPPER WASILLA LAKE            046902201
SCANP 3T4 PAA3T4     0     033NSN63072890W142310680E022001671         1800018000C    MNAR    TETLIN                        046911703
SCANP 3T4 PAGRW08    0033000800 N63073213W142314190               01667000050075D                                          046921703
SCANP 3T4 PAGRW26    0033002600 N63072564W142303160               01671000050075D                                          046931703
SCANP 3Z1 PAA3Z1     0     011NSN64495422W166075348E016000325         1800018000C    MNAR    FEATHER RIVER                 046941703
SCANP 3Z8 PAA3Z8     0     050NWN59444934W158522902E020000091         1800018000C    MNAR    GOLDEN HORN LODGE             046951703
SCANP 40AKPAA        0     019NSN60330436W150505650E023000275         1800018000P    MNAR    STERLING AIR PARK             046961703
SCANP 41AKPAA        0     019NSN61300324W149382292E025000075         1800018000P    MNAR    SETTLERS BAY AIRSTRIP         046971703
SCANP 42AKPAA        0     050NSN70063920W152074710E023000101         1800018000P    MNAR    WILLOW CONOCOPHILLIPS         046981906
SCANP 42AKPAGRW05    0050000430 N70062917W152085303               00094000050150D                                          046991906
SCANP 42AKPAGRW23    0050002230 N70064918W152064108               00101000050150D                                          047001906
SCANP 43AKPAA        0     028NSN61360274W149344501E025000445         1800018000P    MNAR    KALMBACH                      047011703
SCANP 44AKPAA        0     016NSN61320040W150060880E025000230         1800018000P    MNAR    WEST PAPOOSE LAKE AIRPARK     047021703
SCANP 45AAPAA        0     006NSN62094643W150322259E015100383         1800018000P    MNAR    DAVIDSON STRIP                047032201
SCANP 46AKPAA        0     012NSN59441784W151014762E024000115         1800018000P    MNAR    BEAR COVE FARM                047041703
SCANP 47AKPAA        0     014NSN61173300W149315700E022000650         1800018000P    MNAR    HIGHLAND                      047051703
SCANP 48AKPAA        0     012NSN61473512W148293299E026001010         1800018000P    MNAR    CASTLE MOUNTAIN AIRSTRIP      047061703
SCANP 49AKPAA        0     028NSN62012813W149583807E025000300         1800018000P    MNAR    SECLUDED LAKE                 047071703
SCANP 4A2 PAA4A2     0     030NSN60520440W162162740E018000019         1800018000C    MNAR    ATMAUTLUAK                    047081703
SCANP 4A2 PAGRW15    0030001480 N60521870W162163457               00018000025075V                                          047091703
SCANP 4A2 PAGRW33    0030003280 N60515000W162162020               00019000024075V                                          047101703
SCANP 4A3 PAA4A3     0     050NWN61343010W149283220E015400300         1800018000C    MNAR    LAKE LUCILLE                  047112201
SCANP 4A3 PAGRW09W   0050000626 N61342497W149292270               00300000050999D                                          047122201
SCANP 4A3 PAGRW27W   0050002427 N61343516W149274164               00300000050999D                                          047132201
SCANP 4AK PAA4AK     0     030NSN65280217W148391349E027000428         1800018000C    MNAR    LIVENGOOD CAMP                047141703
SCANP 4AK PAGRW15    0030001457 N65281681W148391800               00432000050050D                                          047151703
SCANP 4AK PAGRW33    0030003257 N65274752W148390898               00423000050050D                                          047161703
SCANP 4AK0PAA        0     027NWN61374512W149161589E015500380         1800018000C    MNAR    NIKLASON LAKE                 047172201
SCANP 4AK1PAA        0     050NSN70001379W153043925E020000191         1800018000P    MNAR    INIGOK                        047181703
SCANP 4AK1PAGRW02    0050000235 N69595597W153052876               00191000050150D                                          047191703
SCANP 4AK1PAGRW20    0050002036 N70003161W153034973               00160000050150D                                          047201703
SCANP 4AK2PAA        0     009NSN61332876W149252668E023000250         1800018000P    MNAR    ST JOHN HOMESTEAD             047211703
SCANP 4AK3PAA        0     011NSN61224038W143193345E028001500         1800018000P    MNAR    LONG LAKE                     047221703
SCANP 4AK5PAA        0     023NSN62592358W144284800E028003050         1800018000P    MNAR    MANKOMEN LAKE                 047231703
SCANP 4AK6PAA        0     038NHN61382175W149170223E025000540         1800018000P    MNAR    WOLF LAKE                     047242010
SCANP 4AK6PAGRW08    0038000650 N61382175W149174155               00533000050040D                                          047252010
SCANP 4AK6PAGRW26    0038002450 N61382175W149162290               00530000050040D                                          047262010
SCANP 4AK7PAA        0     015NSN59165132W158354992E020000150         1800018000P    MNAR    ALEKNAGIK MISSION STRIP       047271703
SCANP 4AK8PAA        0     025NSN61321073W158442027E011700200         1800018000P    MNAR    NAPAIMUTE PIONEER AIRFIELD    047282201
SCANP 4AK9PAA        0     017NSN58440337W157002571E021000050         1800018000P    MNAR    TIBBETTS                      047291703
SCANP 4K0 PAA4K0     0     030NSN59474900W154074790E022000084         1800018000C    MNAR    PEDRO BAY                     047301703
SCANP 4K0 PAGRW09    0030020890 N59475425W154081536               00083000050060D                                          047312107
SCANP 4K0 PAGRW27    0030022690 N59474382W154072046               00066000050060D                                          047322107
SCANP 4K5 PAA4K5     0     033NSN57563176W152275398E022000100         1800018000C    MNAR    OUZINKIE                      047331703
SCANP 4K5 PAGRW08    0033000790 N57563476W152282402               00096000050060D                                          047341703
SCANP 4K5 PAGRW26    0033002590 N57562876W152272393               00096000050060D                                          047351703
SCANP 4Z5 PAA4Z5     0     009NSN62002604W141105561E029003620         1800018000C    MNAR    HORSFELD                      047361703
SCANP 4Z7 PAA4Z7     0     100NWN55541195W130002413E026000000         1800018000C    MNAR    HYDER                         047371703
SCANP 4Z9 PAA4Z9     0     010NSN59270778W151312057E023000005         1800018000C    MNAR    JAKOLOF BAY                   047381703
SCANP 50AKPAA        0     025NSN61224966W150065850E015200095         1800018000P    MNAR    ROBIN'S LANDING               047392201
SCANP 51AKPAA        0     025NSN62143224W150035693E015300400         1800018000P    MNAR    BIRCH CREEK LANDING           047402201
SCANP 51Z PAA51Z     0     034NSN65085340W149220690E027000500         1800018000C    MNAR    MINTO AL WRIGHT               047411703
SCANP 51Z PAGRW02    0034000150 N65084101W149223359               00500000026075V                                          047421703
SCANP 51Z PAGRW20    0034001950 N65090582W149214025               00473000026075V                                          047431703
SCANP 52AKPAA        0     018NSN61421451W148543164E015700487         1800018000P    MNAR    CRAG MOUNTAIN                 047442201
SCANP 52Z PAA52Z     0     050NWN60382789W149294968E025001300         1800018000C    MNAR    SUMMIT LAKE                   047451703
SCANP 53AKPAA        0     012NSN60320190W150512327E023000299         1800018000P    MNAR    LAKEWOOD AIRSTRIP             047462013
SCANP 54AKPAA        0     045NWN61362542W149342586E022000400         1800018000P    MNAR    KALMBACH LAKE                 047471703
SCANP 55AKPAA        0     017NSN61294481W149415755E022000200         1800018000P    MNAR    LAWRENCE AIRSTRIP             047481703
SCANP 56AKPAA        0     014NSN62324340W154000760E013801200         1800018000P    MNAR    HINKES                        047492201
SCANP 57A PAA57A     0     060NWN55561368W133193620E026000000         1800018000C    MNAR    TOKEEN                        047501703
SCANP 57AKPAA        0     011NSN61350360W149481358E019000220         1800018000P    MNAR    FLY8MA PILOT LODGE            047512201
SCANP 57AKPAGRW07    0011040690 N61350341W149482498               00193000050050D                                          047522201
SCANP 57AKPAGRW25    0011042491 N61350378W149480218               00212000050050D                                          047532201
SCANP 58A PAA58A     0     040NWN62064828W146022784E027002000         1800018000C    MNAR    TOLSONA LAKE                  047541703
SCANP 58AKPAA        0     035NSN61330932W149202278E023000100         1800018000P    MNAR    FAIRVIEW EAST                 047551703
SCANP 59AKPAA        0     015NSN61375441W149202620E023000520         1800018000P    MNAR    PENDEROSA                     047561703
SCANP 5A8 PAA5A8     0     020NSN59165720W158370432E020000063         1800018000C    MNAR    ALEKNAGIK /NEW                047571703
SCANP 5A8 PAGRW15    0020301440 N59170683W158370959               00062000050060D                                          047581703
SCANP 5A8 PAGRW33    0020303240 N59164757W158365906               00052000050060D                                          047591703
SCANP 5AK PAA5AK     0     022NWN62034824W146265788E027002407         1800018000C    MNAR    TAZLINA /SMOKEY LAKE/         047601703
SCANP 5AK0PAA        0     045NSN60485598W151475610E024000200         1800018000P    MNAR    TRADING BAY PRODUCTION        047611703
SCANP 5AK2PAA        0     018NSN64435047W147205167E028000490         1800018000P    MNAR    HOWARDS                       047621703
SCANP 5AK3PAA        0     025NSN64462347W147200169E028000480         1800018000P    MNAR    AIRWAY                        047631703
SCANP 5AK4PAA        0     050NWN62015810W146402988E016402380         1800018000P    MNAR    SNOWSHOE LAKE                 047642201
SCANP 5AK5PAA        0     015NSN61392552W149274216E023000492         1800018000P    MNAR    TODDS STRIP                   047651703
SCANP 5AK6PAA        0     016NHN61332524W149160584E025000125         1800018000P    MNAR    COLBERG                       047661703
SCANP 5AK8PAA        0     010NHN61375286W149255671E025000420         1800018000P    MNAR    MEMORY LAKE                   047671703
SCANP 5AK9PAA        0     010NSN61325467W149112512E023000150         1800018000P    MNAR    GRANDVIEW SUBDIVISION         047681703
SCANP 5BK PAA5BK     0     022NSN63320653W145513919E028002125         1800018000C    MNAR    BLACK RAPIDS                  047691703
SCANP 5BL PAA5BL     0     030NWN59382960W151311606E024000025         1800018000C    MNAR    HOMER-BELUGA LAKE             047701703
SCANP 5C5 PAA5C5     0     072NWN55573092W133151214E018000014         1800018000C    MNAR    EL CAPITAN LODGE              047712105
SCANP 5C5 PAGRW15W   0072051530 N55590448W133161700               00014000050150D                                          047722105
SCANP 5C5 PAGRW33W   0072053330 N55575443W133155632               00014000050150D                                          047732105
SCANP 5CD PAA5CD     0     025NSN68035558W149344706E028003222         1800018000C    MNAR    CHANDALAR SHELF               047741703
SCANP 5HO PAA5HO     0     020NSN60542611W149372212E025000194         1800018000C    MNAR    HOPE                          047751809
SCANP 5HO PAGRW17    0020401619 N60543608W149371964               00159000050060D                                          047761809
SCANP 5HO PAGRW35    0020403419 N60541614W149372460               00194000050060D                                          047771809
SCANP 5KE PAA5KE     0     038NWN55204007W131394838E026000000         1800018000C    MNAR    KETCHIKAN HARBOR              047781703
SCANP 5KE PAGE       0038930938 N55204915W131401567               00000000050999D                                          047791703
SCANP 5KE PAGW       0038932738 N55203007W131391725               00000000050999D                                          047801703
SCANP 5KS PAA5KS     0     024NSN60210188W151154628E024000125         1800018000C    MNAR    KASILOF                       047811703
SCANP 5KS PAGRW01    0024000050 N60205153W151155781               00104000050060D                                          047821703
SCANP 5KS PAGRW19    0024001850 N60211222W151153476               00107000050060D                                          047831703
SCANP 5L6 PAA5L6     0     040NWN61351106W149242700E025000330         1800018000C    MNAR    WASILLA LAKE                  047841703
SCANP 5NK PAA5NK     0     020NWN58440479W157013076E021000070         1800018000C    MNAR    NAKNEK                        047851703
SCANP 5NK PAGRW08    0019500710 N58441000W157020500               00067000050050D                                          047861703
SCANP 5NK PAGRW14    0018361410 N58440821W157011938               00064000050045D                                          047871703
SCANP 5NK PAGRW26    0019502510 N58440932W157012808               00070000050050D                                          047881703
SCANP 5NK PAGRW32    0018363210 N58435101W157010861               00070000050045D                                          047891703
SCANP 5QC PAA5QC     0     029NSN65242136W164392061E018000416         1800018000C    MNAR    QUARTZ CREEK /KOUGAROK/       047901703
SCANP 5Z5 PAA5Z5     0     018NSN63322755W150594228E025001578         1800018000C    MNAR    KANTISHNA                     047911703
SCANP 5Z5 PAGRW10    0018871072 N63323379W150595769               01554000050045D                                          047921703
SCANP 5Z5 PAGRW28    0018872872 N63322131W150592686               01578000050045D                                          047931703
SCANP 5Z9 PAA5Z9     0     050NWN58331744W155463860E021000036         1800018000C    MNAR    LAKE BROOKS                   047941703
SCANP 62AKPAA        0     020NWN61342230W149342892E022000320         1800018000P    MNAR    WALLIS LAKE SPB               047951703
SCANP 63A PAA63A     0     090NWN56484075W132573620E027000000         1800018000C    MNAR    LLOYD R ROUNDTREE SEAPLANE FAC047961703
SCANP 63AKPAA        0     012NSN61350359W149561716E022000189         1800018000P    MNAR    KUCERA RESIDENCE              047971703
SCANP 64AKPAA        0     012NSN61262368W150013396E022000175         1800018000P    MNAR    CARPENTIERS STRIP             047981703
SCANP 65AKPAA        0     027NSN61333747W149220398E023000285         1800018000P    MNAR    FAIRVIEW LANDING              047992014
SCANP 65AKPAGRW06    0027000670 N61333746W149223184               00285000050075D                                          048002013
SCANP 65AKPAGRW24    0027002470 N61333747W149213611               00285000050075D                                          048012013
SCANP 66AKPAA        0     017NWN61374800W149340900E015400406         1800018000P    MNAR    JUNE LAKE                     048022201
SCANP 67AKPAA        0     026NSN61320470W149401236E015400375         1800018000P    MNAR    SOUTH HOLLYWOOD               048032201
SCANP 68A PAA68A     0     090NWN56275877W132224807E027000000         1800018000C    MNAR    WRANGELL                      048041703
SCANP 69AKPAA        0     020NWN61374400W149252500E015500463         1800018000P    MNAR    MEMORY LAKE                   048052201
SCANP 6A7 PAA6A7     0     012NWN61285462W149462368E015300100         1800018000C    MNAR    BROCKER LAKE                  048062201
SCANP 6AK PAA6AK     0     021NSN62050291W152430309E024001900         1800018000C    MNAR    RAINY PASS LODGE              048071703
SCANP 6AK1PAA        0     020NSN58544218W161425001E018000100         1800018000P    MNAR    PLATINUM MINE                 048081703
SCANP 6AK2PAA        0     016NSN61150586W149575833E025000088         1800018000P    MNAR    SLEEPERS STRIP                048092106
SCANP 6AK2PAGRW06    0016000600 N61150514W149581462               00088000050060D                                          048102106
SCANP 6AK2PAGRW24    0016002400 N61150657W149574205               00088000050060D                                          048112106
SCANP 6AK3PAA        0     019NSN60434599W151164105E023000185         1800018000P    MNAR    BUTLER AVIATION               048121703
SCANP 6AK5PAA        0     020NSN61100601W150093799E025000055         1800018000P    MNAR    FIRE ISLAND                   048131703
SCANP 6AK7PAA        0     020NSN61342900W149380600E022000270         1800018000P    MNAR    RAINBOW HEIGHTS ESTATES AIRSTR048141703
SCANP 6AK8PAA        0     012NSN61370534W149400908E022000350         1800018000P    MNAR    TULAKES                       048151703
SCANP 6AK9PAA        0     013NSN61380046W149405657E022000300         1800018000P    MNAR    CIZEK NORTH                   048161703
SCANP 6R7 PAA6R7     0     027NSN57130590W153161140E021000055         1800018000C    MNAR    OLD HARBOR                    048171703
SCANP 6R7 PAGRW03    0027500208 N57125580W153162805               00055000050060D                                          048181703
SCANP 6R7 PAGRW21    0027502008 N57131600W153155474               00053000050060D                                          048191703
SCANP 70AKPAA        0     028NSN60310400W150573500E014800250         1800018000P    MNAR    BANGERTER FLD                 048202201
SCANP 71AKPAA        0     020NSN61313950W149294672E024000110         1800018000P    MNAR    BLUFF PARK FARM               048211703
SCANP 74AKPAA        0     030NSN61345632W148594913E016000222         1800018000P    MNAR    MAUD ROAD STRIP               048221912
SCANP 75AKPAA        0     026NSN60353504W151194064E014700100         1800018000P    MNAR    HENLEY                        048232201
SCANP 76AKPAA        0     030NSN64280287W144551521E017201350         1800018000P    MNAR    POGO MINE AIRSTRIP            048242201
SCANP 76Z PAA76Z     0     008NSN58553938W157024975E021000050         1800018000C    MNAR    NAKEEN                        048251703
SCANP 77AKPAA        0     017NSN61300961W149354436E015400080         1800018000P    MNAR    TIDEWATER                     048262201
SCANP 78AAPAA        0     016NSN64461834W147144809E016500540         1800018000P    MNAR    LAKEWOOD                      048272201
SCANP 78AKPAA        0     013NSN61440580W150321505E015100160         1800018000P    MNAR    C T S                         048282201
SCANP 78K PAA78K     0     050NWN55545869W131480408E026000000         1800018000C    MNAR    YES BAY LODGE                 048291703
SCANP 78Z PAA78Z     0     060NWN61421195W150002570E025000214         1800018000C    MNAR    NANCY LAKE                    048301703
SCANP 79AKPAA        0     015NSN61285462W149443847E015300254         1800018000P    MNAR    HUTTUNEN STRIP                048312201
SCANP 7AK2PAA        0     030NWN58080383W133434625E028000014         1800018000P    MNAR    SNETTISHAM                    048321703
SCANP 7AK3PAA        0     027NSN60283494W151095801E024000115         1800018000P    MNAR    GAEDE                         048331703
SCANP 7AK4PAA        0     019NSN61322933W149273845E025000150         1800018000P    MNAR    JACK FISH LANDING             048341703
SCANP 7AK5PAA        0     014NSN60301295W150560798E024000300         1800018000P    MNAR    DAHLER HOMESTEAD              048351703
SCANP 7AK6PAA        0     019NSN60283295W150554397E024000287         1800018000P    MNAR    DAN FRANCE                    048362111
SCANP 7AK6PAGRW04    0019000395 N60282877W150560091               00287000050040D                                          048372111
SCANP 7AK6PAGRW22    0019002195 N60283712W150552702               00287000050040D                                          048382111
SCANP 7AK8PAA        0     013NSN61371650W149365371E025000355         1800018000P    MNAR    HESS                          048391703
SCANP 7AK9PAA        0     014NSN61384859W149025474E023000700         1800018000P    MNAR    VINDUSKA                      048401703
SCANP 80A PAA80A     0     015NSN65061434W151103804E026000513         1800018000C    MNAR    AMERICAN CREEK                048411703
SCANP 80A PAGRW02    0015000200 N65060921W151105063               00493000050070D                                          048421703
SCANP 80A PAGRW20    0015002000 N65061946W151102545               00513000050070D                                          048431703
SCANP 80AKPAA        0     040NWN61360709W149470305E015300300         1800018000P    MNAR    MORVRO LAKE                   048442201
SCANP 81AKPAA        0     016NSN62340369W150140968E015200600         1800018000P    MNAR    MC KINLEY COUNTRY             048452201
SCANP 83AKPAA        0     015NSN65152340W148494892E015900800         1800018000P    MNAR    TOLOVANA HOT SPRINGS          048462201
SCANP 84K PAA84K     0     070NWN55442269W132151807E026000000         1800018000C    MNAR    MEYERS CHUCK                  048471703
SCANP 85AKPAA        0     034NWN61303300W149543100E015300150         1800018000P    MNAR    MARION                        048482201
SCANP 86AKPAA        0     011NWN61330515W149564470E015300180         1800018000P    MNAR    HOPPE'S                       048492201
SCANP 87AKPAA        0     011NSN61390551W149171853E024000545         1800018000P    MNAR    SOLOY STRIP                   048501703
SCANP 88AKPAA        0     013NSN60322500W150520500E023000300         1800018000P    MNAR    DUTCH LANDING STRIP           048511703
SCANP 89AKPAA        0     020NSN61333380W149421969E024000250         1800018000P    MNAR    LINCOLN VILLAGE AIRPARK       048521703
SCANP 8AK1PAA        0     012NSN62164902W145214596E016901670         1800018000P    MNAR    JACOBUS FLD                   048532201
SCANP 8AK2PAA        0     026NSN60420773W151173830E024000150         1800018000P    MNAR    CARTY'S AIRSTRIP              048542007
SCANP 8AK3PAA        0     030NSN66455776W160090997E021000360         1800018000P    MNAR    ROLAND NORTON MEML AIRSTRIP   048552014
SCANP 8AK5PAA        0     018NSN62305000W150155500E015200650         1800018000P    MNAR    FORT CROSBY                   048562201
SCANP 8AK6PAA        0     026NSN61221900W150154401E025000070         1800018000P    MNAR    LITTLE SUSITNA                048571703
SCANP 8AK8PAA        0     015NSN61374800W149405729E022000350         1800018000P    MNAR    NORTH CUBS STRIP              048581703
SCANP 8AK9PAA        0     020NSN63175974W143012402E029001630         1800018000P    MNAR    TOK 2                         048591703
SCANP 8K9 PAA8K9     0     100NWN55232274W131441707E026000000         1800018000C    MNAR    MURPHYS PULLOUT               048601703
SCANP 8KA PAA8KA     0     012NSN62173583W153214303E024001490         1800018000C    MNAR    TATITNA                       048611703
SCANP 91AKPAA        0     050NWN61343500W149563600E015300175         1800018000P    MNAR    KUCERA                        048622201
SCANP 93AKPAA        0     015NSN62110337W147223079E016203720         1800018000P    MNAR    TYONE CREEK 907AU CAMP        048632201
SCANP 94Z PAA94Z     0     019NSN64304112W165232483E017000069         1800018000C    MNAR    NOME CITY FLD                 048642014
SCANP 94Z PAGRW03    0019500264 N64303415W165234013               00054000050110D                                          048651703
SCANP 94Z PAGRW21    0019502064 N64304809W165230953               00068000050110D                                          048661703
SCANP 95AKPAA        0     011NSN61282143W149585689E015300140         1800018000P    MNAR    BROWN'S HOMESTEAD             048672201
SCANP 95Z PAA95Z     0     041NSN64453320W147231550E028000483         1800018000C    MNAR    BRADLEY SKY-RANCH             048681703
SCANP 96AKPAA        0     020NWN60171602W151204604E014700208         1800018000P    MNAR    HACKNEY LANDING               048692201
SCANP 96Z PAA96Z     0     100NWN56065872W133071818E026000000         1800018000C    MNAR    WHALE PASS SEAPLANE FLOAT HARB048701806
SCANP 97AKPAA        0     018NSN61395040W149151296E015500720         1800018000P    MNAR    HIGH RIDGE ASSOCIATION        048712201
SCANP 98AKPAA        0     020NSN59463303W151105387E014701190         1800018000P    MNAR    EASTLAND                      048722201
SCANP 99AKPAA        0     012NSN62355655W157090650E022000980         1800018000P    MNAR    MOORE CREEK                   048731703
SCANP 99Z PAA99Z     0     055NWN61363325W149154875E025000337         1800018000C    MNAR    FINGER LAKE                   048741703
SCANP 9A8 PAA9A8     0     031NSN57312433W157234558E020000044         1800018000C    MNAR    UGASHIK                       048751703
SCANP 9A8 PAGRW06    0031000575 N57312103W157241330               00026000050060D                                          048761703
SCANP 9A8 PAGRW24    0031002375 N57312763W157231786               00044000050060D                                          048771703
SCANP 9AA1PAA        0     012NSN61405531W149172665E015500800         1800018000P    MNAR    ELK RANCH                     048782201
SCANP 9AA9PAA        0     011NSN59241100W136011000E018600260         1800018000P    MNAR    AIRKAT AIRPARK                048792201
SCANP 9AK PAA9AK     0     007NSN64013238W148312042E027002717         1800018000C    MNAR    TOTATLANIKA RIVER             048801703
SCANP 9AK0PAA        0     014NSN62304367W143140770E028003120         1800018000P    MNAR    SPORTSMENS PARADISE           048811703
SCANP 9AK1PAA        0     030NWN61375113W149135444E015500500         1800018000P    MNAR    STORMY HILL                   048822201
SCANP 9AK2PAA        0     026NSN61535640W161262300E019000300         1800018000P    MNAR    KAKO                          048831703
SCANP 9AK3PAA        0     041NSN61004998W151265608E024000030         1800018000P    MNAR    NIKOLAI CREEK                 048841703
SCANP 9AK4PAA        0     028NSN64081450W145494940E028001009         1800018000P    MNAR    ARCTIC ANGEL                  048851703
SCANP 9AK5PAA        0     018NSN61065933W149490757E025000340         1800018000P    MNAR    SKY HARBOR                    048861703
SCANP 9AK6PAA        0     018NSN61372662W149385388E022000366         1800018000P    MNAR    LEISUREWOOD AIRSTRIP          048871703
SCANP 9AK7PAA        0     012NSN61352465W149485555E022000196         1800018000P    MNAR    CUBDIVISION                   048882201
SCANP 9AK7PAGRW04    0012000410 N61352200W149490663               00196000050100D                                          048892201
SCANP 9AK7PAGRW22    0012002210 N61352730W149484446               00196000050100D                                          048902201
SCANP 9AK8PAA        0     020NSN61372907W149405603E022000090         1800018000P    MNAR    WOLF TRACK                    048911703
SCANP 9AK9PAA        0     019NSN60331073W150382700E023000253         1800018000P    MNAR    MOOSE MEADOWS                 048922101
SCANP 9AK9PAGRW08    0019000667 N60331068W150384600               00246000050060D                                          048932101
SCANP 9AK9PAGRW26    0019002467 N60331077W150380800               00253000050060D                                          048942101
SCANP 9C0 PAA9C0     0     090NWN55230474W131441807E026000000         1800018000C    MNAR    PENINSULA POINT PULLOUT       048951703
SCANP 9Z3 PAA9Z3     0     021NWN57480930W152225783E022000130         1800018000C    MNAR    KODIAK /LILLY LAKE/           048961703
SCANP 9Z8 PAA9Z8     0     032NSN59073750W156513560E018000056         1800018000C    MNAR    LEVELOCK                      048971703
SCANP 9Z8 PAGRW01    0032840080 N59072291W156514940               00055000050060D                                          048981703
SCANP 9Z8 PAGRW19    0032841880 N59075199W156512184               00052000050060D                                          048991703
SCANP 9Z9 PAA9Z9     0     023NSN60244279W149220963E025000484         1800018000C    MNAR    LAWING                        049001703
SCANP 9Z9 PAGRW15    0023551530 N60245437W149221060               00484000050060D                                          049011703
SCANP 9Z9 PAGRW33    0023553330 N60243120W149220866               00470000050060D                                          049021703
SCANP A11 PAAA11     0     040NWN61075902W149563084E015200020         1800018000C    MNAR    CAMPBELL LAKE SPB             049032201
SCANP A13 PAAA13     0     010NSN61202882W148595597E025000900         1800018000C    MNAR    BOLD                          049041703
SCANP A23 PAAA23     0     100NWN56531080W134093020E027000000         1800018000C    MNAR    SAGINAW                       049051703
SCANP A27 PAAA27     0     020NWN59260278W151422758E023000000         1800018000C    MNAR    SELDOVIA                      049061703
SCANP A29 PAAA29     0     040NWN57030770W135204635E027000000         1800018000C    MNAR    SITKA                         049071703
SCANP A43 PAAA43     0     030NWN58040881W134005528E028000000         1800018000C    MNAR    TAKU HARBOR                   049081703
SCANP A57 PAAA57     0     018NSN59115688W138264516E028000053         1800018000C    MNAR    ALSEK RIVER                   049091703
SCANP A61 PAAA61     0     030NSN60210399W162391660E012000016         1800018000C    MNAR    TUNTUTULIAK                   049101904
SCANP A61 PAGRW02    0030050217 N60205168W162393317               00014000050075D                                          049111904
SCANP A61 PAGRW20    0030052017 N60211630W162390002               00015000050075D                                          049121904
SCANP A63 PAAA63     0     030NSN59042829W160163015E019000082         1800018000C    MNAR    TWIN HILLS                    049131703
SCANP A63 PAGRW18    0030001770 N59044252W160162243               00082000050060D                                          049141703
SCANP A63 PAGRW36    0030003570 N59041406W160163786               00044000050060D                                          049151703
SCANP A67 PAAA67     0     021NSN59245183W139020140E028000113         1800018000C    MNAR    HARLEQUIN LAKE                049161703
SCANP A67 PAGRW05    0021000425 N59244838W139022052               00113000050035D                                          049171703
SCANP A67 PAGRW23    0021002225 N59245527W139014227               00113000050035D                                          049181703
SCANP A68 PAAA68     0     021NSN59331034W139303680E028000060         1800018000C    MNAR    SITUK                         049191703
SCANP A68 PAGRW13    0021501262 N59331987W139304587               00060000050010D                                          049201703
SCANP A68 PAGRW31    0021503062 N59330080W139302773               00058000050010D                                          049211703
SCANP A69 PAAA69     0     019NSN59145855W138301500E028000183         1800018000C    MNAR    TANIS MESA                    049221703
SCANP A69 PAGRW12    0019001217 N59150663W138302421               00183000050010D                                          049231703
SCANP A69 PAGRW30    0019003017 N59145047W138300578               00168000050010D                                          049241703
SCANP A77 PAAA77     0     015NSN63000673W156220250E022001120         1800018000C    MNAR    YANKEE CREEK 2                049251703
SCANP A79 PAAA79     0     028NSN56151965W158464020E019000050         1800018000C    MNAR    CHIGNIK LAKE                  049261703
SCANP A79 PAGRW08    0028000820 N56152224W158470454               00036000050060D                                          049271703
SCANP A79 PAGRW26    0028002620 N56151705W158461585               00044000050060D                                          049281703
SCANP AA00PAA        0     006NSN62303654W149553618E015401670         1800018000P    MNAR    SHUMP                         049292201
SCANP AA01PAA        0     038NWN61350586W149504751E015300215         1800018000P    MNAR    WEST BEAVER                   049302201
SCANP AA02PAA        0     055NWN61341733W149552680E015300140         1800018000P    MNAR    HORSESHOE LAKE                049312201
SCANP AA05PAA        0     009NSN57333071W156471567E012400020         1800018000P    MNAR    UGASHIK NARROWS               049322201
SCANP AA05PAGRW15    0009881332 N57333473W156472079               00020000050020D                                          049332201
SCANP AA05PAGRW33    0009883132 N57332669W156471054               00020000050020D                                          049342201
SCANP AA06PAA        0     040NWN61172300W149482200E015300085         1800018000P    MNAR    SIXMILE LAKE                  049352201
SCANP AA09PAA        0     021NSN62283900W147462900E016103984         1800018000P    MNAR    BUSCH CREEK                   049362201
SCANP AA10PAA        0     020NSN61315841W149415554E016000330         1800018000P    MNAR    EAGLES ROOST                  049372013
SCANP AA10PAGRW09    0020000690 N61315762W149421610               00274000050050D                                          049382013
SCANP AA10PAGRW27    0020002490 N61315920W149413498               00320000050050D                                          049392013
SCANP AA11PAA        0     019NWN61330266W149403407E015400350         1800018000P    MNAR    MISTY LAKE                    049402201
SCANP AA12PAA        0     025NWN57022700W135174400E018200017         1800018000P    MNAR    DOVE ISLAND LODGE             049412201
SCANP AA15PAA        0     014NWN59033231W158343788E020000080         1800018000P    MNAR    SHANNONS POND                 049421810
SCANP AA16PAA        0     027NSN60372931W151174020E014700125         1800018000P    MNAR    TREASURE CHEST                049432201
SCANP AA22PAA        0     023NSN64075829W145481618E016901050         1800018000P    MNAR    DELTA DAVES                   049442201
SCANP AA25PAA        0     011NSN61302832W149044413E015600040         1800018000P    MNAR    SHELBY STRIP                  049452201
SCANP AA30PAA        0     012NSN61385348W149521499E015300315         1800018000P    MNAR    TRIO ESTATES                  049462201
SCANP AA33PAA        0     017NSN61361494W149461243E015300120         1800018000P    MNAR    GUS LANDING                   049472201
SCANP AA76PAA        0     024NSN64461000W147194600E016500480         1800018000P    MNAR    TIMBER TRAILS                 049482201
SCANP AA85PAA        0     025NWN61365911W149131571E015500114         1800018000P    MNAR    WALBY LAKE                    049492201
SCANP AK0 PAAAK0     0     010NSN61130794W142532836E028001074         1800018000C    MNAR    JAKES BAR                     049501703
SCANP AK0 PAGRW10    0010001031 N61131118W142533605               01067000050025D                                          049511703
SCANP AK0 PAGRW28    0010002831 N61130470W142532067               01074000050025D                                          049521703
SCANP AK00PAA        0     025NSN59465900W151511100E022000120         1800018000P    MNAR    ANCHOR RIVER AIRPARK          049531809
SCANP AK01PAA        0     017NSN60314434W150373048E014900336         1800018000P    MNAR    ALASKA AIRPARK                049542201
SCANP AK02PAA        0     014NSN65322359W161034456E020000575         1800018000P    MNAR    BEAR CREEK 1                  049551703
SCANP AK05PAA        0     008NSN60322778W150355718E015000365         1800018000P    MNAR    BREEDEN                       049562201
SCANP AK06PAA        0     040NSN63382537W148473118E027002050         1800018000P    MNAR    DENALI                        049572011
SCANP AK06PAGRW12    0040001190 N63384173W148475578               02050000050050D                                          049582011
SCANP AK06PAGRW30    0040002990 N63380900W148470657               02050000050050D                                          049592011
SCANP AK08PAA        0     016NSN61472371W150062174E024000190         1800018000P    MNAR    THOMAS STRIP                  049601703
SCANP AK09PAA        0     023NSN64025858W145300837E028001100         1800018000P    MNAR    WINGSONG ESTATES              049611703
SCANP AK1 PAAAK1     0     018NSN61314914W149010349E025000064         1800018000C    MNAR    BUTTE MUNI                    049621703
SCANP AK10PAA        0     018NSN61430200W150063400E015200210         1800018000P    MNAR    AK-10 AIRSTRIP                049632201
SCANP AK11PAA        0     010NSN60462340W151134990E014700200         1800018000P    MNAR    HIGH VISTA                    049642201
SCANP AK12PAA        0     010NSN61062376W149515137E025000150         1800018000P    MNAR    FLYING CROWN                  049651703
SCANP AK13PAA        0     030NSN65030657W146025076E029001195         1800018000P    MNAR    CHENA HOT SPRINGS             049661703
SCANP AK14PAA        0     020NSN61211200W150045700E015200100         1800018000P    MNAR    TURINSKY AIRSTRIP             049672201
SCANP AK16PAA        0     016NSN61312431W149425350E015400303         1800018000P    MNAR    SUNSET STRIP                  049682201
SCANP AK17PAA        0     015NSN59454883W151132367E023001600         1800018000P    MNAR    GLACIERVIEW STRIP             049691703
SCANP AK19PAA        0     019NSN62102192W150035027E016000344         1800018000P    MNAR    CARL'S LANDING                049702113
SCANP AK19PAGRW16    0019751626 N62103164W150035076               00344000050075D                                          049712113
SCANP AK19PAGRW34    0019753426 N62101221W150034978               00311000050075D                                          049722113
SCANP AK20PAA        0     035NSN70251424W150531200E015100007         1800018000P    MNAR    CD-3 AIRSTRIP                 049732201
SCANP AK21PAA        0     010NSN59075730W157463785E019000040         1800018000P    MNAR    NUSHAGAK                      049741703
SCANP AK22PAA        0     040NSN64491800W147311800E027000475         1800018000P    MNAR    LAKLOEY AIR PARK              049751703
SCANP AK24PAA        0     014NSN61250430W149262216E025000420         1800018000P    MNAR    HILLTOP                       049761703
SCANP AK25PAA        0     012NSN61370300W149365306E024000350         1800018000P    MNAR    PIPER LANDING                 049771703
SCANP AK26PAA        0     011NSN64333831W164263238E018000025         1800018000P    MNAR    SOLOMON STATE FLD             049782014
SCANP AK27PAA        0     018NSN61383329W149372802E022000400         1800018000P    MNAR    VALLEY FLYING CROWN           049791703
SCANP AK28PAA        0     047NSN64485050W147550680E027000427         1800018000P    MNAR    CHENA MARINA                  049801703
SCANP AK29PAA        0     016NSN61364536W149510821E022000246         1800018000P    MNAR    REIDS LANDING                 049811703
SCANP AK30PAA        0     016NSN60232815W146055087E016500050         1800018000P    MNAR    STRAWBERRY POINT              049822201
SCANP AK31PAA        0     020NSN61244041W143000445E027001225         1800018000P    MNAR    SWIFT CREEK                   049831703
SCANP AK33PAA        0     010NSN55480502W160535732E018000020         1800018000P    MNAR    HERENDEEN BAY                 049841703
SCANP AK34PAA        0     040NWN61500709W150044706E025000186         1800018000P    MNAR    KASHWITNA LAKE                049851703
SCANP AK36PAA        0     030NSN61260967W150072050E022000123         1800018000P    MNAR    POINT MAC                     049861703
SCANP AK39PAA        0     025NSN60414991W150104782E025000381         1800018000P    MNAR    SOUTH GASLINE                 049871703
SCANP AK40PAA        0     042NSN63134505W154453721E021001510         1800018000P    MNAR    NIXON FORK MINE               049881703
SCANP AK41PAA        0     018NSN64323800W146503900E027000925         1800018000P    MNAR    GREG'N SAGE                   049891703
SCANP AK43PAA        0     035NWN61344469W149321986E022000350         1800018000P    MNAR    JACOBSEN LAKE                 049901703
SCANP AK44PAA        0     016NSN62190817W150065813E025000346         1800018000P    MNAR    TALKEETNA VILLAGE STRIP       049911703
SCANP AK45PAA        0     022NSN61333375W149372744E015400250         1800018000P    MNAR    GREBE LAKE                    049922201
SCANP AK46PAA        0     010NSN61374379W149023548E024000750         1800018000P    MNAR    ABI                           049931703
SCANP AK47PAA        0     011NSN61350848W149334806E022000300         1800018000P    MNAR    SHAWN FLD                     049942014
SCANP AK48PAA        0     040NWN61314080W150005280E015200150         1800018000P    MNAR    HAGGARDS LANDING              049952201
SCANP AK49PAA        0     022NSN65404539W164475571E017000440         1800018000P    MNAR    TAYLOR                        049961703
SCANP AK5 PAAAK5     0     035NWN60152000W151181100E014700230         1800018000C    MNAR    ENCELEWSKI LAKE               049972201
SCANP AK50PAA        0     020NHN61331668W149082945E025000120         1800018000P    MNAR    SKY RANCH AT PIONEER PEAK     049982007
SCANP AK51PAA        0     040NWN58384666W156343995E016000004         1800018000P    MNAR    BIG CREEK                     049992208
SCANP AK51PAGRW01W   0040003390 N58380342W156343265               00000000050200D                                          050002008
SCANP AK51PAGRW12W   0040001330 N58391269W156351590               00000000050200D                                          050012008
SCANP AK51PAGRW19W   0040001590 N58384270W156343904               00000000050200D                                          050022008
SCANP AK51PAGRW30W   0040003130 N58383877W156343745               00000000050200D                                          050032008
SCANP AK52PAA        0     013NSN64532000W147320814E025000582         1800018000P    MNAR    MOEN'S RANCH                  050041703
SCANP AK53PAA        0     012NSN61152552W153475238E015001197         1800018000P    MNAR    STONY MOUNTAIN LODGE          050051705
SCANP AK53PAGRW03    0012270150 N61152029W153475864               01197000050050D                                          050062207
SCANP AK53PAGRW21    0012271950 N61153076W153474610               01197000050050D                                          050072207
SCANP AK54PAA        0     009NSN61353599W149193443E023000340         1800018000P    MNAR    STRO'S                        050081703
SCANP AK55PAA        0     020NSN60292100W150480600E022000290         1800018000P    MNAR    MOOSE RUN AIRSTRIP            050091703
SCANP AK56PAA        0     020NWN59574738W158283805E020000304         1800018000P    MNAR    TIKCHIK LODGE                 050101703
SCANP AK57PAA        0     050NWN61433234W150052836E022000180         1800018000P    MNAR    LONG LAKE                     050111703
SCANP AK59PAA        0     018NSN61472800W148210600E023001350         1800018000P    MNAR    KING RANCH                    050121703
SCANP AK60PAA        0     047NSN57530636W157054855E020000240         1800018000P    MNAR    FORT JENSEN                   050131703
SCANP AK61PAA        0     030NSN62415866W148542668E015701900         1800018000P    MNAR    STEPHAN LAKE LODGE            050142201
SCANP AK62PAA        0     100NWN55505871W133134018E026000000         1800018000C    MNAR    NAUKATI BAY                   050151703
SCANP AK63PAA        0     018NSN61351900W149083300E023000246         1800018000P    MNAR    PAT-MAR STRIP                 050161703
SCANP AK64PAA        0     009NSN61565432W151312707E019000505         1800018000P    MNAR    SCOOTERS                      050172201
SCANP AK64PAGRW13    0009001305 N61565814W151313184               00505000050020D                                          050182201
SCANP AK64PAGRW31    0009003105 N61565050W151312230               00485000050020D                                          050192201
SCANP AK65PAA        0     015NSN61355262W149210184E024000300         1800018000P    MNAR    GREEN'S STRIP                 050201703
SCANP AK66PAA        0     012NSN61272748W148474329E023000100         1800018000P    MNAR    HUNTER CREEK                  050211703
SCANP AK67PAA        0     014NSN61441900W150042200E022000064         1800018000P    MNAR    SKID MARKS                    050221703
SCANP AK68PAA        0     012NSN61431300W150031600E022000290         1800018000P    MNAR    MINUTEMAN STRIP               050231703
SCANP AK69PAA        0     018NSN61434555W150055161E022000200         1800018000P    MNAR    LONG LAKE                     050241703
SCANP AK71PAA        0     050NSN70543868W153143197E028000017         1800018000M    MNAR    LONELY AS                     050251703
SCANP AK72PAA        0     019NSN61421869W150355763E025000113         1800018000P    MNAR    JEWELL                        050261703
SCANP AK73PAA        0     040NHN60433099W151180805E024000150         1800018000P    MNAR    MCGAHAN INDUSTRIAL AIRPARK    050271703
SCANP AK74PAA        0     014NSN65541749W163194473E019001300         1800018000P    MNAR    UPPER HANNUM CREEK            050281703
SCANP AK75PAA        0     038NSN65542757W161553470E020000015         1800018000P    MNAR    CANDLE 2                      050291703
SCANP AK76PAA        0     015NSN59073463W138243180E028000039         1800018000C    MNAR    EAST ALSEK RIVER              050301703
SCANP AK76PAGRW02    0015000252 N59073020W138244329               00034000050010D                                          050311703
SCANP AK76PAGRW20    0015002052 N59073905W138242030               00039000050010D                                          050321703
SCANP AK77PAA        0     055NSN63562914W145252001E017001275         1800018000P    MNAR    ALL WEST                      050332201
SCANP AK79PAA        0     013NSN61353678W149335940E015400100         1800018000P    MNAR    JOLLY FLD                     050342201
SCANP AK8 PAAAK8     0     040NWN62184829W150040966E015300400         1800018000C    MNAR    CHRISTIANSEN LAKE             050352201
SCANP AK80PAA        0     013NSN62172800W147242500E016203530         1800018000P    MNAR    RED CREEK                     050362201
SCANP AK81PAA        0     080NWN57281738W153485530E022000000         1800018000P    MNAR    AMOOK BAY                     050371703
SCANP AK83PAA        0     021NSN61373810W149363359E024000380         1800018000P    MNAR    GANNON'S LANDING              050381703
SCANP AK84PAA        0     024NSN60314600W150495100E014900259         1800018000P    MNAR    SCOOTER'S LANDING STRIP       050392201
SCANP AK85PAA        0     008NSN61285640W149455035E015300110         1800018000P    MNAR    BIRCHWATER                    050402201
SCANP AK86PAA        0     008NSN61342474W149544086E015300150         1800018000P    MNAR    KRAMER                        050412201
SCANP AK88PAA        0     013NSN61361691W149022468E015600416         1800018000P    MNAR    EAGLE NEST                    050422201
SCANP AK89PAA        0     010NSN61392271W149531220E015300350         1800018000P    MNAR    BLACK SPRUCE                  050432201
SCANP AK90PAA        0     018NSN61444099W150065566E025000185         1800018000P    MNAR    SHIRLEY LAKE                  050441703
SCANP AK92PAA        0     006NSN61381474W149014316E015000783         1800018000P    MNAR    MARTIN                        050452107
SCANP AK92PAGRW18    0006001850 N61381752W149014104               00783000050050D                                          050462107
SCANP AK92PAGRW36    0006000050 N61381196W149014528               00783000050050D                                          050472107
SCANP AK93PAA        0     016NSN61391865W149162456E015500535         1800018000P    MNAR    GROUSE RIDGE                  050482201
SCANP AK95PAA        0     010NSN61341332W149464454E024000185         1800018000P    MNAR    TWIN LAKE                     050491703
SCANP AK96PAA        0     050NSN57305908W157230943E012200025         1800018000P    MNAR    RANDY BRIGGS MEM FLD          050502201
SCANP AK96PAGRW06    0050000660 N57305405W157235424               00025000050100D                                          050512201
SCANP AK96PAGRW24    0050002460 N57310410W157222461               00025000050100D                                          050522201
SCANP AK97PAA        0     026NSN60252303W146084527E026000230         1800018000P    MNAR    BOSWELL BAY                   050531703
SCANP AK98PAA        0     012NSN65381922W167290891E016000560         1800018000P    MNAR    BUCK CREEK                    050541703
SCANP AK99PAA        0     012NSN61264800W149454000E015300085         1800018000P    MNAR    GRAND HOME                    050552201
SCANP ALZ PAAALZ     0     100NWN56535815W154145225E021000000         1800018000C    MNAR    ALITAK                        050561703
SCANP AN0 PAAAN0     0     018NWN60315921W150503631E014900238         1800018000C    MNAR    SCOUTLAKE                     050572213
SCANP AN0 PAGRW06W   0018690614 N60315887W150505025               00238000050200D                                          050582213
SCANP AN0 PAGRW24W   0018692414 N60320322W150501396               00238000050200D                                          050592213
SCANP AQY PAAAQY     0     020NSN60580848W149070965E025000164         1800018000C    MNAR    GIRDWOOD                      050601703
SCANP AQY PAGRW02    0020950150 N60580052W149072315               00134000050060D                                          050611703
SCANP AQY PAGRW20    0020951950 N60581644W149065614               00164000050060D                                          050621703
SCANP BNF PAABNF     0     100NWN57051977W134495931E027000000         1800018000C    MNAR    BARANOF WARM SPRINGS FLOAT AND050631703
SCANP BQV PAABQV     0     100NWN58271875W135530661E028000000         1800018000C    MNAR    BARTLETT COVE                 050641703
SCANP BYA PAABYA     0     023NSN64044189W141064815E031002940         1800018000C    MNAR    BOUNDARY                      050651703
SCANP CGA PAACGA     0     100NWN55284379W133085208E026000000         1800018000C    MNAR    CRAIG                         050661703
SCANP CHP PAACHP     0     036NSN65290927W144364207E030000870         1800018000C    MNAR    CIRCLE HOT SPRINGS            050671703
SCANP CHP PAGRW09    0036690830 N65291628W144372211               00829000050080D                                          050681703
SCANP CHP PAGRW27    0036692630 N65290225W144360202               00870000050080D                                          050691703
SCANP CKU PAACKU     0     080NWN60323712W145433308E026000059         1800018000C    MNAR    CORDOVA MUNI                  050701703
SCANP CKU PAGRW06    0018000580 N60323625W145435098               00059000050060D                                          050711703
SCANP CKU PAGRW24    0018002380 N60323799W145431517               00050000050060D                                          050721703
SCANP CKX PAACKX     0     025NSN64040031W141570485E030001640         1800018000C    MNAR    CHICKEN                       050731703
SCANP CKX PAGRW13    0025001270 N64041164W141571572               01640000050060D                                          050741703
SCANP CKX PAGRW31    0025003070 N64034897W141565398               01640000050060D                                          050751703
SCANP CSR PAACSR     0     050NSN61093132W149465020E025000286         1800018000P    MNAR    CAMPBELL AIRSTRIP             050761703
SCANP CXC PAACXC     0     028NSN61345953W144254729E027000556         1800018000C    MNAR    CHITINA                       050771703
SCANP CXC PAGRW13    0028501330 N61351271W144255743               00547000050075D                                          050781703
SCANP CXC PAGRW31    0028503130 N61344635W144253715               00547000050075D                                          050791703
SCANP CYQGCYA        0     090YHN42163311W082572753W007000622                   C    MNAR    WINDSOR                       050801810
SCANP CYQGCYDBARII25ALL   010HUUTZK5EA0E       IF                                 + 04000     18000                        050811909
SCANP CYQGCYDBARII25ALL   020BARIIK5EA0EE      TF                                                                          050821909
SCANP CYQGCYDBARII26SINKR 010BARIIK5EA0E       IF                                             18000                        050831909
SCANP CYQGCYDBARII26SINKR 020SINKRK5EA0EE      TF                                                                          050841909
SCANP CYQGCYDCCOBB25ALL   010BROZZK5EA0E       IF                                 + 04000     18000                        050851909
SCANP CYQGCYDCCOBB25ALL   020CCOBBK5EA0EE      TF                                                                          050861909
SCANP CYQGCYDCCOBB26ZEGBI 010CCOBBK5EA0E       IF                                             18000                        050871909
SCANP CYQGCYDCCOBB26ZEGBI 020ZEGBIK5EA0EE      TF                                                                          050881909
SCANP CYQGCYDCLVIN25ALL   010PHAULK5EA0E       IF                                 + 04000     18000                        050891909
SCANP CYQGCYDCLVIN25ALL   020CLVINK5EA0EE      TF                                                                          050901909
SCANP CYQGCYDCLVIN26STAZE 010CLVINK5EA0E       IF                                             18000                        050911909
SCANP CYQGCYDCLVIN26STAZE 020TFTUNK5EA0E       TF                                                                          050921909
SCANP CYQGCYDCLVIN26STAZE 030RINTEK5EA0E       TF                                                                          050931909
SCANP CYQGCYDCLVIN26STAZE 040PUUDLK5EA0E       TF                                                                          050941909
SCANP CYQGCYDCLVIN26STAZE 050STAZEK5EA0EE      TF                                                                          050951909
SCANP CYQGCYDHHOWE35ALL   010MALTBCYEA0E       IF                                 + 04000     18000                        050961913
SCANP CYQGCYDHHOWE35ALL   020HHOWECYEA0EE      TF                                                                          050971913
SCANP CYQGCYDHHOWE36BROKK 010HHOWECYEA0E       IF                                             18000                        050981913
SCANP CYQGCYDHHOWE36BROKK 020BROKKCYEA0EE      TF                                                                          050991913
SCANP CYQGCYDHHOWE36LNCON 010HHOWECYEA0E       IF                                             18000                        051001913
SCANP CYQGCYDHHOWE36LNCON 020LNCONCYEA0EE      TF                                                                          051011913
SCANP CYQGCYDKAYLN25ALL   010MTRCTK5EA0E       IF                                 + 04000     18000                        051021909
SCANP CYQGCYDKAYLN25ALL   020KAYLNK5EA0EE      TF                                                                          051031909
SCANP CYQGCYDKAYLN26SMUUV 010KAYLNK5EA0E       IF                                             18000                        051041909
SCANP CYQGCYDKAYLN26SMUUV 020IIICEK5EA0E       TF                                                                          051051909
SCANP CYQGCYDKAYLN26SMUUV 030SMUUVK5EA0EE      TF                                                                          051061909
SCANP CYQGCYDKZLOV15ALL   010KZLOVCYEA0E       IF                                 B 100000400018000                        051072207
SCANP CYQGCYDKZLOV15ALL   020WINNZCYEA0EE      TF                                                                          051082207
SCANP CYQGCYDLIDDS25ALL   010KZLOVCYEA0E       IF                                 B 150000400018000                        051091909
SCANP CYQGCYDLIDDS25ALL   020LIDDSCYEA0EE      TF                                                                          051101909
SCANP CYQGCYDLIDDS26GRIVY 010LIDDSCYEA0E       IF                                             18000                        051111909
SCANP CYQGCYDLIDDS26GRIVY 020NOONRCYEA0E       TF                                                                          051121909
SCANP CYQGCYDLIDDS26GRIVY 030ZEYOUK5EA0E       TF                                                                          051131909
SCANP CYQGCYDLIDDS26GRIVY 040GRIVYK5EA0EE      TF                                                                          051141909
SCANP CYQGCYDMETRO32ALL   010DXO  K5D 0VE      IF                                             18000                        051152012
SCANP CYQGCYDMETRO33DUNKS 010DXO  K5D 0V       IF                                             18000                        051162012
SCANP CYQGCYDMETRO33DUNKS 020DUNKSK5EA0EE      TF                                                                          051172012
SCANP CYQGCYDMETRO33HARWL 010DXO  K5D 0V       IF                                             18000                        051182012
SCANP CYQGCYDMETRO33HARWL 020HARWLK5EA0EE      TF                                                                          051192012
SCANP CYQGCYDMETRO33ILLIE 010DXO  K5D 0V       IF                                             18000                        051202012
SCANP CYQGCYDMETRO33ILLIE 020ANNTSK5EA0E       TF                                                                          051212012
SCANP CYQGCYDMETRO33ILLIE 030ILLIEK5EA0EE      TF                                                                          051222012
SCANP CYQGCYDMETRO33MAARS 010DXO  K5D 0V       IF                                             18000                        051232012
SCANP CYQGCYDMETRO33MAARS 020MAARSCYEA0EE      TF                                                                          051242012
SCANP CYQGCYDMETRO33PISTN 010DXO  K5D 0V       IF                                             18000                        051252012
SCANP CYQGCYDMETRO33PISTN 020PISTNK5EA0EE      TF                                                                          051262012
SCANP CYQGCYDMIGGY25ALL   010JAXIIK5EA0E       IF                                 + 04000     18000                        051271909
SCANP CYQGCYDMIGGY25ALL   020MIGGYK5EA0EE      TF                                                                          051281909
SCANP CYQGCYDMIGGY26GETCH 010MIGGYK5EA0E       IF                                             18000                        051291909
SCANP CYQGCYDMIGGY26GETCH 020MONEEK5EA0E       TF                                                                          051301909
SCANP CYQGCYDMIGGY26GETCH 030GETCHK5EA0EE      TF                                                                          051311909
SCANP CYQGCYDMIGGY26HUBBY 010MIGGYK5EA0E       IF                                             18000                        051321909
SCANP CYQGCYDMIGGY26HUBBY 020MONEEK5EA0E       TF                                                                          051331909
SCANP CYQGCYDMIGGY26HUBBY 030HUBBYK5EA0EE      TF                                                                          051341909
SCANP CYQGCYDMIGGY26SLLAP 010MIGGYK5EA0E       IF                                             18000                        051351909
SCANP CYQGCYDMIGGY26SLLAP 020MONEEK5EA0E       TF                                                                          051361909
SCANP CYQGCYDMIGGY26SLLAP 030SLLAPK5EA0EE      TF                                                                          051371909
SCANP CYQGCYDPAVYL25ALL   010SLVVACYEA0E       IF                                 + 04000     18000                        051381909
SCANP CYQGCYDPAVYL25ALL   020PAVYLCYEA0EE      TF                                                                          051391909
SCANP CYQGCYDPAVYL26ESSBE 010PAVYLCYEA0E       IF                                             18000                        051401909
SCANP CYQGCYDPAVYL26ESSBE 020ESSBECYEA0EE      TF                                                                          051411909
SCANP CYQGCYDPAVYL26MRDOC 010PAVYLCYEA0E       IF                                             18000                        051421909
SCANP CYQGCYDPAVYL26MRDOC 020MRDOCCYEA0EE      TF                                                                          051431909
SCANP CYQGCYDSNDRS25ALL   010JWELSK5EA0E       IF                                 + 04000     18000                        051441909
SCANP CYQGCYDSNDRS25ALL   020SNDRSK5EA0EE      TF                                                                          051451909
SCANP CYQGCYDSNDRS26BGHRT 010SNDRSK5EA0E       IF                                             18000                        051461909
SCANP CYQGCYDSNDRS26BGHRT 020REEDAK5EA0E       TF                                                                          051471909
SCANP CYQGCYDSNDRS26BGHRT 030SEABSK5EA0E       TF                                                                          051481909
SCANP CYQGCYDSNDRS26BGHRT 040KNRKOK5EA0E       TF                                                                          051491909
SCANP CYQGCYDSNDRS26BGHRT 050BGHRTK5EA0EE      TF                                                                          051501909
SCANP CYQGCYDSNDRS26TORRR 010SNDRSK5EA0E       IF                                             18000                        051511909
SCANP CYQGCYDSNDRS26TORRR 020TORRRK5EA0EE      TF                                                                          051521909
SCANP CYQGCYDTRMML35ALL   010LOALAK5EA0E       IF                                 + 04000     18000                        051531911
SCANP CYQGCYDTRMML35ALL   020TRMMLK5EA0EE      TF                                                                          051541911
SCANP CYQGCYDTRMML36GNZOE 010TRMMLK5EA0E       IF                                             18000                        051551911
SCANP CYQGCYDTRMML36GNZOE 020DDEEZK5EA0E       TF                                                                          051561911
SCANP CYQGCYDTRMML36GNZOE 030GNZOEK5EA0EE      TF                                                                          051571911
SCANP CYQGCYDZETTR35ALL   010FLOKAK5EA0E       IF                                 + 04000     18000                        051581913
SCANP CYQGCYDZETTR35ALL   020ZETTRK5EA0EE      TF                                 - 17000                                  051591913
SCANP CYQGCYDZETTR36DUTEL 010ZETTRK5EA0E       IF                                 - 17000     18000                        051601913
SCANP CYQGCYDZETTR36DUTEL 020KARITCYEA0E       TF                                                                          051611913
SCANP CYQGCYDZETTR36DUTEL 030DUTELCYEA0EE      TF                                                                          051621913
SCANP CYQGCYDZETTR36ETBOX 010ZETTRK5EA0E       IF                                 - 17000     18000                        051631913
SCANP CYQGCYDZETTR36ETBOX 020KARITCYEA0E       TF                                                                          051641913
SCANP CYQGCYDZETTR36ETBOX 030ETBOXCYEA0EE      TF                                                                          051651913
SCANP CYQGCYDZETTR36KELTI 010ZETTRK5EA0E       IF                                 - 17000     18000                        051661913
SCANP CYQGCYDZETTR36KELTI 020TANKOCYEA0E       TF                                                                          051671913
SCANP CYQGCYDZETTR36KELTI 030KELTIK6EA0EE      TF                                                                          051681913
SCANP CYQGCYDZETTR36SIKBO 010ZETTRK5EA0E       IF                                 - 17000     18000                        051691913
SCANP CYQGCYDZETTR36SIKBO 020TANKOCYEA0E       TF                                                                          051701913
SCANP CYQGCYDZETTR36SIKBO 030SIKBOCYEA0EE      TF                                                                          051711913
SCANP CYQGCYDZETTR36TANKO 010ZETTRK5EA0E       IF                                 - 17000     18000                        051721913
SCANP CYQGCYDZETTR36TANKO 020TANKOCYEA0EE      TF                                                                          051731913
SCANP CYQGCYEFOREY24BOBCT 010BOBCTK5EA0E       IF                                             18000                        051741911
SCANP CYQGCYEFOREY24BOBCT 020WWSHRK5EA0E       TF                                                                          051751911
SCANP CYQGCYEFOREY24BOBCT 030NACCAK5EA0E       TF                                                                          051761911
SCANP CYQGCYEFOREY24BOBCT 040FOREYCYEA0EE      TF                                                                          051771911
SCANP CYQGCYEFOREY24KOZAR 010KOZARK6EA0E       IF                                             18000                        051781911
SCANP CYQGCYEFOREY24KOZAR 020WWSHRK5EA0E       TF                                                                          051791911
SCANP CYQGCYEFOREY24KOZAR 030NACCAK5EA0E       TF                                                                          051801911
SCANP CYQGCYEFOREY24KOZAR 040FOREYCYEA0EE      TF                                                                          051811911
SCANP CYQGCYEFOREY24WWSHR 010WWSHRK5EA0E       IF                                             18000                        051821911
SCANP CYQGCYEFOREY24WWSHR 020NACCAK5EA0E       TF                                                                          051831911
SCANP CYQGCYEFOREY24WWSHR 030FOREYCYEA0EE      TF                                                                          051841911
SCANP CYQGCYEFOREY25ALL   010FOREYCYEA0E       IF                                             18000                        051851911
SCANP CYQGCYEFOREY25ALL   020VRNRSCYEA0E       TF                                                                          051861911
SCANP CYQGCYEFOREY25ALL   030SWETYK5EA0EY      TF                                 + 04000                                  051871911
SCANP CYQGCYEFOREY25ALL   040SWETYK5EA0EE      FM AIR K5      336218303000    D                                            051881911
SCANP CYQGCYEGIGGY24COLTS 010COLTSCYEA0E       IF                                 - FL360     18000                        051891911
SCANP CYQGCYEGIGGY24COLTS 020BOREKCYEA0E       TF                                                                          051901911
SCANP CYQGCYEGIGGY24COLTS 030LOPVOCYEA0E       TF                                                                          051911911
SCANP CYQGCYEGIGGY24COLTS 040ITPEGCYEA0E       TF                                                                          051921911
SCANP CYQGCYEGIGGY24COLTS 050PICUPCYEA0E       TF                                   10000                                  051931911
SCANP CYQGCYEGIGGY24COLTS 060AXXISCYEA0EE      TF                                                                          051941911
SCANP CYQGCYEGIGGY24PICUP 010PICUPCYEA0E       IF                                   10000     18000                        051951911
SCANP CYQGCYEGIGGY24PICUP 020AXXISCYEA0EE      TF                                                                          051961911
SCANP CYQGCYEGIGGY25ALL   010AXXISCYEA0E       IF                                             18000                        051971911
SCANP CYQGCYEGIGGY25ALL   020AUTTOCYEA0E       TF                                                                          051981911
SCANP CYQGCYEGIGGY25ALL   030GIGGYCYEA0EY      TF                                 + 04000                                  051991911
SCANP CYQGCYEGIGGY25ALL   040GIGGYCYEA0EE      FM JXN K5      088708412303    D                                            052001911
SCANP CYQGCYEPETTE24HOSSA 010HOSSAK5EA0E       IF                                             18000                        052011911
SCANP CYQGCYEPETTE24HOSSA 020PETTEK5EA0EE      TF                                                                          052022105
SCANP CYQGCYEPETTE24QBURT 010QBURTK5EA0E       IF                                             18000                        052031911
SCANP CYQGCYEPETTE24QBURT 020HEVYDK5EA0E       TF                                                                          052041911
SCANP CYQGCYEPETTE24QBURT 030HAZITK5EA0E       TF                                                                          052051911
SCANP CYQGCYEPETTE24QBURT 040PETTEK5EA0EE      TF                                                                          052061911
SCANP CYQGCYEPETTE24TORRR 010TORRRK5EA0E       IF                                             18000                        052071911
SCANP CYQGCYEPETTE24TORRR 020HAZITK5EA0E       TF                                                                          052081911
SCANP CYQGCYEPETTE24TORRR 030PETTEK5EA0EE      TF                                                                          052092105
SCANP CYQGCYEPETTE24WWODD 010WWODDK5EA0E       IF                                             18000                        052101911
SCANP CYQGCYEPETTE24WWODD 020BGLRIK5EA0E       TF                                                                          052111911
SCANP CYQGCYEPETTE24WWODD 030QBURTK5EA0E       TF                                                                          052121911
SCANP CYQGCYEPETTE24WWODD 040HEVYDK5EA0E       TF                                                                          052131911
SCANP CYQGCYEPETTE24WWODD 050HAZITK5EA0E       TF                                                                          052141911
SCANP CYQGCYEPETTE24WWODD 060PETTEK5EA0EE      TF                                                                          052152105
SCANP CYQGCYEPETTE25ALL   010PETTEK5EA0E       IF                                             18000                        052162105
SCANP CYQGCYEPETTE25ALL   020SYRENK5EA0EY      TF                                 + 04000                                  052171911
SCANP CYQGCYEPETTE25ALL   030SYRENK5EA0EE      FM AIR K5      318719720710    D                                            052181911
SCANP CYQGCYERRALF34CLLEM 010CLLEMK5EA0E       IF                                             18000                        052192006
SCANP CYQGCYERRALF34CLLEM 020KILTTK5EA0E       TF                                                                          052202006
SCANP CYQGCYERRALF34CLLEM 030RRALFK5EA0EE      TF                                                                          052212006
SCANP CYQGCYERRALF34OREYO 010OREYOK5EA0E       IF                                             18000                        052222006
SCANP CYQGCYERRALF34OREYO 020IYLGOK5EA0E       TF                                                                          052232006
SCANP CYQGCYERRALF34OREYO 030KILTTK5EA0E       TF                                                                          052242006
SCANP CYQGCYERRALF34OREYO 040RRALFK5EA0EE      TF                                                                          052252006
SCANP CYQGCYERRALF34WEBOR 010WEBORK5EA0E       IF                                             18000                        052262006
SCANP CYQGCYERRALF34WEBOR 020NIMNMK5EA0E       TF                                                                          052272006
SCANP CYQGCYERRALF34WEBOR 030CLLEMK5EA0E       TF                                                                          052282006
SCANP CYQGCYERRALF34WEBOR 040KILTTK5EA0E       TF                                                                          052292006
SCANP CYQGCYERRALF34WEBOR 050RRALFK5EA0EE      TF                                                                          052302006
SCANP CYQGCYERRALF35ALL   010RRALFK5EA0E       IF                                             18000                        052312006
SCANP CYQGCYERRALF35ALL   020PICTRK5EA0EY      TF                                 + 04000                                  052322006
SCANP CYQGCYERRALF35ALL   030PICTRK5EA0EE      FM AIR K5      327419610850    D                                            052332006
SCANP CYQGCYGRW07    0090000700 N42162834W082580194               00622090150200D                                          052342207
SCANP CYQGCYGRW12    0051501230 N42162138W082580572               00622057050150D                                          052351204
SCANP CYQGCYGRW25    0090002500 N42170001W082563982               00608114349200I                                          052361806
SCANP CYQGCYGRW30    0051503030 N42160320W082571464               00620032150150D                                          052372207
SCANP CYXXCYA        0     095YHN49013100W122213600E019000194                   C    MNAR    ABBOTSFORD                    052381709
SCANP CYXXCYEMADEE44PAE   010PAE  K1D 0V       IF                                 + 16000     18000                        052391707
SCANP CYXXCYEMADEE44PAE   020EVRTTK1EA0E       TF                                 + 14000                                  052401707
SCANP CYXXCYEMADEE44PAE   030MADEEK1EA0EE      TF                                 + 07000          250               -     052411707
SCANP CYXXCYEMADEE45ALL   010MADEEK1EA0E       IF                                 + 07000     18000250               -     052421707
SCANP CYXXCYEMADEE45ALL   020GERRDK1EA0E       TF                                 B 0700005000                             052431707
SCANP CYXXCYEMADEE45ALL   030UCAKIK1EA0E       TF                                 + 04000                                  052441707
SCANP CYXXCYEMADEE45ALL   040YAANOK1EA0EY      TF                                 + 02000                                  052451707
SCANP CYXXCYEMADEE45ALL   050YAANOK1EA0EE      FM SKA K1      276921483438    D                                            052461707
SCANP CZBBCYA        0     056YHN49042700W123002700E017000006                   C    MNAR    VANCOUVER/BOUNDARY BAY        052471707
SCANP CZBBCYEMADEE44PAE   010PAE  K1D 0V       IF                                 + 16000     18000                        052481707
SCANP CZBBCYEMADEE44PAE   020EVRTTK1EA0E       TF                                 + 14000                                  052491707
SCANP CZBBCYEMADEE44PAE   030MADEEK1EA0EE      TF                                 + 07000          250               -     052501707
SCANP CZBBCYEMADEE45ALL   010MADEEK1EA0E       IF                                 + 07000     18000250               -     052511707
SCANP CZBBCYEMADEE45ALL   020GERRDK1EA0E       TF                                 B 0700005000                             052521707
SCANP CZBBCYEMADEE45ALL   030UCAKIK1EA0E       TF                                 + 04000                                  052531707
SCANP CZBBCYEMADEE45ALL   040YAANOK1EA0EY      TF                                 + 02000                                  052541707
SCANP CZBBCYEMADEE45ALL   050YAANOK1EA0EE      FM SKA K1      276921483438    D                                            052551707
SCANP CZN PAACZN     0     030NSN62041830W142025766E029003348         1800018000C    MNAR    CHISANA                       052561703
SCANP CZN PAGRW12    0030001249 N62043156W142031152               03254000050050D                                          052571703
SCANP CZN PAGRW30    0030003049 N62040504W142024380               03328000050050D                                          052581703
SCANP CZO PAACZO     0     020NSN62334440W144402080E021001861         1800018000C    MNAR    CHISTOCHINA                   052591703
SCANP CZO PAGRW02    0020600204 N62333680W144403536               01853000050060D                                          052601703
SCANP CZO PAGRW20    0020602004 N62335202W144400630               01861000050060D                                          052611703
SCANP D66 PAAD66     0     025NSN64030042W145432088E028001150         1800018000C    MNAR    DELTA JUNCTION                052621703
SCANP D66 PAGRW07    0025000828 N64030479W145434715               01150000050060D                                          052631703
SCANP D66 PAGRW25    0025002628 N64025605W145425460               01150000050060D                                          052641703
SCANP D71 PAAD71     0     050NWN61343050W149505160E015300150         1800018000C    MNAR    BEAVER LAKE                   052652201
SCANP D72 PAAD72     0     035NWN61210907W149324686E015400295         1800018000C    MNAR    D&C FIRE LAKE FLYING CLUB     052662201
SCANP D75 PAAD75     0     038NWN61343389W149403205E015400242         1800018000C    MNAR    BLODGETT LAKE                 052672201
SCANP DCK PAADCK     0     047NSN66563322W156532893E023000260         1800018000C    MNAR    DAHL CREEK                    052681703
SCANP DDT PAADDT     0     012NSN62432860W143551385E028002420         1800018000P    MNAR    DUFFYS TAVERN                 052691703
SCANP EXI PAAEXI     0     010NWN58251380W135265652E028000000         1800018000C    MNAR    EXCURSION INLET               052701703
SCANP FLT PAAFLT     0     040NSN62270954W157592065E021000309         1800018000C    MNAR    FLAT                          052711703
SCANP GNU PAAGNU     0     033NSN59070430W161342520E018000018         1800018000C    MNAR    GOODNEWS                      052721703
SCANP GNU PAGRW06    0033000529 N59065898W161345507               00018000050075D                                          052731703
SCANP GNU PAGRW24    0033002329 N59070961W161335533               00018000050075D                                          052741703
SCANP HWI PAAHWI     0     100NWN58073879W134452143E028000000         1800018000P    MNAR    HAWK INLET                    052751703
SCANP HYL PAAHYL     0     100NWN55292550W132372480E026000000         1800018000C    MNAR    CLARK BAY                     052761705
SCANP IBN PAAIBN     0     020NSN62240665W142594369E028002880         1800018000P    MNAR    DEVILS MOUNTAIN LODGE         052771703
SCANP JLA PAAJLA     0     022NSN60290335W149432244E025000466         1800018000C    MNAR    QUARTZ CREEK                  052781703
SCANP JLA PAGRW04    0022000320 N60285739W149434076               00459000050060D                                          052791703
SCANP JLA PAGRW22    0022002120 N60290931W149430412               00466000050060D                                          052801703
SCANP K29 PAAK29     0     030NSN64534829W163421260E018000100         1800018000C    MNAR    COUNCIL                       052811703
SCANP K29 PAGRW10    0030000990 N64535496W163424362               00100000050060D                                          052821703
SCANP K29 PAGRW28    0030002790 N64534162W163414157               00089000050060D                                          052831703
SCANP K40 PAAK40     0     020NWN62392241W160121962E020000052         1800018000C    MNAR    ANVIK                         052841703
SCANP K55 PAAK55     0     025NSN61103817W145411836E027002080         1800018000C    MNAR    THOMPSON PASS                 052851703
SCANP KAE PAAKAE     0     100NWN56582279W133564421E027000000         1800018000C    MNAR    KAKE                          052861703
SCANP KBE PAAKBE     0     106NWN55554468W131341809E026000000         1800018000P    MNAR    BELL ISLAND HOT SPRINGS       052871703
SCANP KCL PAAKCL     0     022NSN56183948W158320415E019000028         1800018000C    MNAR    CHIGNIK LAGOON                052881703
SCANP KCL PAGRW04    0022000345 N56183302W158321982               00025000050090D                                          052891703
SCANP KCL PAGRW22    0022002145 N56184593W158314848               00025000050090D                                          052901703
SCANP KCR PAAKCR     0     032NSN63340380W155592056E023000860         1800018000P    MNAR    COLORADO CREEK                052911703
SCANP KEB PAAKEB     0     018NSN59210773W151553056E023000027         1800018000C    MNAR    NANWALEK                      052921703
SCANP KEB PAGRW01    0018503470 N59205876W151553366               00027000050050D                                          052931703
SCANP KEB PAGRW19    0018501670 N59211670W151552746               00027000050050D                                          052941703
SCANP KEK PAAKEK     0     033NSN59212462W157281610E017000141         1800018000C    MNAR    EKWOK                         052952013
SCANP KEK PAGRW02    0033000210 N59211193W157283598               00119000050075D                                          052962013
SCANP KEK PAGRW20    0033002010 N59213731W157275622               00141000050075D                                          052972013
SCANP KGZ PAAKGZ     0     014NSN61271848W142225142E028002380         1800018000C    MNAR    GLACIER CREEK                 052981703
SCANP KKB PAAKKB     0     040NWN58112741W152221376E023000000         1800018000C    MNAR    KITOI BAY                     052991703
SCANP KKI PAAKKI     0     050NWN60542831W161260628E019000018         1800018000C    MNAR    AKIACHAK                      053001703
SCANP KKL PAAKKL     0     100NWN57220133W154013933E022000368         1800018000C    MNAR    KARLUK LAKE                   053011703
SCANP KKU PAAKKU     0     012NSN58484029W158333183E020000030         1800018000P    MNAR    EKUK                          053021703
SCANP KMY PAAKMY     0     100NWN57013211W154084531E021000000         1800018000C    MNAR    MOSER BAY                     053031703
SCANP KOY PAAKOY     0     100NWN57094123W154134726E021000000         1800018000C    MNAR    OLGA BAY                      053041703
